{
  "address": "0x83a1E034a4B70cb8990a980E6cB2A587db55b313",
  "abi": [
    {
      "inputs": [
        {
          "internalType": "address",
          "name": "_owner",
          "type": "address"
        }
      ],
      "stateMutability": "nonpayable",
      "type": "constructor"
    },
    {
      "anonymous": false,
      "inputs": [
        {
          "indexed": false,
          "internalType": "string",
          "name": "name",
          "type": "string"
        },
        {
          "indexed": false,
          "internalType": "uint256",
          "name": "price",
          "type": "uint256"
        },
        {
          "indexed": false,
          "internalType": "string",
          "name": "description",
          "type": "string"
        },
        {
          "indexed": false,
          "internalType": "string",
          "name": "image",
          "type": "string"
        },
        {
          "indexed": false,
          "internalType": "uint256",
          "name": "foodId",
          "type": "uint256"
        }
      ],
      "name": "FoodAdded",
      "type": "event"
    },
    {
      "anonymous": false,
      "inputs": [
        {
          "indexed": true,
          "internalType": "address",
          "name": "buyer",
          "type": "address"
        },
        {
          "indexed": false,
          "internalType": "string",
          "name": "name",
          "type": "string"
        },
        {
          "indexed": false,
          "internalType": "uint256",
          "name": "time",
          "type": "uint256"
        },
        {
          "indexed": false,
          "internalType": "string",
          "name": "tableId",
          "type": "string"
        },
        {
          "indexed": false,
          "internalType": "uint256",
          "name": "orderId",
          "type": "uint256"
        }
      ],
      "name": "FoodBought",
      "type": "event"
    },
    {
      "inputs": [
        {
          "internalType": "string",
          "name": "_name",
          "type": "string"
        },
        {
          "internalType": "uint256",
          "name": "_price",
          "type": "uint256"
        },
        {
          "internalType": "string",
          "name": "_description",
          "type": "string"
        },
        {
          "internalType": "string",
          "name": "_image",
          "type": "string"
        }
      ],
      "name": "addFood",
      "outputs": [],
      "stateMutability": "nonpayable",
      "type": "function"
    },
    {
      "inputs": [
        {
          "internalType": "uint256",
          "name": "_index",
          "type": "uint256"
        },
        {
          "internalType": "string",
          "name": "tableId",
          "type": "string"
        }
      ],
      "name": "buyFood",
      "outputs": [],
      "stateMutability": "payable",
      "type": "function"
    },
    {
      "inputs": [],
      "name": "getAllOrders",
      "outputs": [
        {
          "components": [
            {
              "internalType": "string",
              "name": "name",
              "type": "string"
            },
            {
              "internalType": "uint256",
              "name": "price",
              "type": "uint256"
            },
            {
              "internalType": "bool",
              "name": "isPrepared",
              "type": "bool"
            },
            {
              "internalType": "address",
              "name": "buyer",
              "type": "address"
            },
            {
              "internalType": "string",
              "name": "tableId",
              "type": "string"
            },
            {
              "internalType": "uint256",
              "name": "orderId",
              "type": "uint256"
            }
          ],
          "internalType": "struct web3Food.order[]",
          "name": "",
          "type": "tuple[]"
        }
      ],
      "stateMutability": "view",
      "type": "function"
    },
    {
      "inputs": [
        {
          "internalType": "uint256",
          "name": "_index",
          "type": "uint256"
        }
      ],
      "name": "getFood",
      "outputs": [
        {
          "components": [
            {
              "internalType": "string",
              "name": "name",
              "type": "string"
            },
            {
              "internalType": "uint256",
              "name": "price",
              "type": "uint256"
            },
            {
              "internalType": "string",
              "name": "description",
              "type": "string"
            },
            {
              "internalType": "string",
              "name": "image",
              "type": "string"
            },
            {
              "internalType": "uint256",
              "name": "foodId",
              "type": "uint256"
            }
          ],
          "internalType": "struct web3Food.food",
          "name": "",
          "type": "tuple"
        }
      ],
      "stateMutability": "view",
      "type": "function"
    },
    {
      "inputs": [],
      "name": "maxFood",
      "outputs": [
        {
          "internalType": "uint256",
          "name": "",
          "type": "uint256"
        }
      ],
      "stateMutability": "view",
      "type": "function"
    },
    {
      "inputs": [],
      "name": "orderId",
      "outputs": [
        {
          "internalType": "uint256",
          "name": "",
          "type": "uint256"
        }
      ],
      "stateMutability": "view",
      "type": "function"
    },
    {
      "inputs": [],
      "name": "owner",
      "outputs": [
        {
          "internalType": "address",
          "name": "",
          "type": "address"
        }
      ],
      "stateMutability": "view",
      "type": "function"
    },
    {
      "inputs": [
        {
          "internalType": "uint256",
          "name": "_index",
          "type": "uint256"
        }
      ],
      "name": "prepareOrder",
      "outputs": [],
      "stateMutability": "nonpayable",
      "type": "function"
    },
    {
      "inputs": [],
      "name": "withdraw",
      "outputs": [],
      "stateMutability": "nonpayable",
      "type": "function"
    }
  ],
  "transactionHash": "0x962af95635f3716a863b45adb0e796e54e08d6f2f277a377cf36daaf066c0744",
  "args": [
    "0xfb8b972b0D1cF9BB242A40F7AEA8E9a1bF89E0E3"
  ],
  "numDeployments": 1,
  "solcInputHash": "d41aeaa43b3d04f495bb3a4628157022",
  "bytecode": "0x60806040526000600155600060025534801561001a57600080fd5b5060405161120e38038061120e8339810160408190526100399161005e565b600080546001600160a01b0319166001600160a01b039290921691909117905561008e565b60006020828403121561007057600080fd5b81516001600160a01b038116811461008757600080fd5b9392505050565b6111718061009d6000396000f3fe6080604052600436106100865760003560e01c80633ccfd60b116100595780633ccfd60b146101235780637bea0d1c146101385780638da5cb5b1461015a578063c243fb4914610192578063dfca959f146101a857600080fd5b80630bbeb8661461008b578063163de5e5146100ad5780631e4de872146100d65780633442fafa14610103575b600080fd5b34801561009757600080fd5b506100ab6100a6366004610bdb565b6101bb565b005b3480156100b957600080fd5b506100c360025481565b6040519081526020015b60405180910390f35b3480156100e257600080fd5b506100f66100f1366004610c6d565b6102c5565b6040516100cd9190610cd6565b34801561010f57600080fd5b506100ab61011e366004610c6d565b6104f4565b34801561012f57600080fd5b506100ab6105a8565b34801561014457600080fd5b5061014d61060f565b6040516100cd9190610d4f565b34801561016657600080fd5b5060005461017a906001600160a01b031681565b6040516001600160a01b0390911681526020016100cd565b34801561019e57600080fd5b506100c360015481565b6100ab6101b6366004610e0d565b6107cd565b6040805160a0810182528581526020810185905290810183905260608101829052600180546080830152600380549182018155600052815182916005027fc2575a0e9e593c00f959f8c92f12db2869c3395a3b0502d05e2516446f71f85b019081906102279082610edd565b5060208201516001820155604082015160028201906102469082610edd565b506060820151600382019061025b9082610edd565b506080820151816004015550507f95a8a800b05c316965e814cfd44fcc1c494efc73b62e45728c378fd3ac71db61858585856001546040516102a1959493929190610f9d565b60405180910390a1600180549060006102b983610fef565b91905055505050505050565b6102f76040518060a0016040528060608152602001600081526020016060815260200160608152602001600081525090565b6003828154811061030a5761030a611016565b90600052602060002090600502016040518060a001604052908160008201805461033390610e54565b80601f016020809104026020016040519081016040528092919081815260200182805461035f90610e54565b80156103ac5780601f10610381576101008083540402835291602001916103ac565b820191906000526020600020905b81548152906001019060200180831161038f57829003601f168201915b50505050508152602001600182015481526020016002820180546103cf90610e54565b80601f01602080910402602001604051908101604052809291908181526020018280546103fb90610e54565b80156104485780601f1061041d57610100808354040283529160200191610448565b820191906000526020600020905b81548152906001019060200180831161042b57829003601f168201915b5050505050815260200160038201805461046190610e54565b80601f016020809104026020016040519081016040528092919081815260200182805461048d90610e54565b80156104da5780601f106104af576101008083540402835291602001916104da565b820191906000526020600020905b8154815290600101906020018083116104bd57829003601f168201915b505050505081526020016004820154815250509050919050565b6000546001600160a01b031633146105275760405162461bcd60e51b815260040161051e9061102c565b60405180910390fd5b600454811061056e5760405162461bcd60e51b8152602060048201526013602482015272092dcecc2d8d2c840dee4c8cae440d2dcc8caf606b1b604482015260640161051e565b60016004828154811061058357610583611016565b60009182526020909120600590910201600201805460ff191691151591909117905550565b6000546001600160a01b031633146105d25760405162461bcd60e51b815260040161051e9061102c565b600080546040516001600160a01b03909116914780156108fc02929091818181858888f1935050505015801561060c573d6000803e3d6000fd5b50565b60606004805480602002602001604051908101604052809291908181526020016000905b828210156107c457838290600052602060002090600502016040518060c001604052908160008201805461066690610e54565b80601f016020809104026020016040519081016040528092919081815260200182805461069290610e54565b80156106df5780601f106106b4576101008083540402835291602001916106df565b820191906000526020600020905b8154815290600101906020018083116106c257829003601f168201915b505050918352505060018201546020820152600282015460ff81161515604083015261010090046001600160a01b0316606082015260038201805460809092019161072990610e54565b80601f016020809104026020016040519081016040528092919081815260200182805461075590610e54565b80156107a25780601f10610777576101008083540402835291602001916107a2565b820191906000526020600020905b81548152906001019060200180831161078557829003601f168201915b5050505050815260200160048201548152505081526020019060010190610633565b50505050905090565b60035482106108135760405162461bcd60e51b8152602060048201526012602482015271092dcecc2d8d2c840ccdedec840d2dcc8caf60731b604482015260640161051e565b6003828154811061082657610826611016565b90600052602060002090600502016001015434101561087c5760405162461bcd60e51b8152602060048201526012602482015271496e73756666696369656e742066756e647360701b604482015260640161051e565b604080516000815260208101808352815190209161089c91849101611071565b60405160208183030381529060405280519060200120036108f75760405162461bcd60e51b8152602060048201526015602482015274506c6561736520656e7465722061207461626c652160581b604482015260640161051e565b60006040518060c001604052806003858154811061091757610917611016565b9060005260206000209060050201600001805461093390610e54565b80601f016020809104026020016040519081016040528092919081815260200182805461095f90610e54565b80156109ac5780601f10610981576101008083540402835291602001916109ac565b820191906000526020600020905b81548152906001019060200180831161098f57829003601f168201915b50505050508152602001600385815481106109c9576109c9611016565b60009182526020808320600160059384029091018101548552908401839052336040850152606084018790526002546080909401939093526004805493840181559091528251929350839291027f8a35acfbc15ff81a39ae7d344fd709f28e8600b4aa8c65c6b64bfe7fe36bd19b01908190610a459082610edd565b5060208201516001820155604082015160028201805460608501516001600160a01b031661010002610100600160a81b0319931515939093166001600160a81b03199091161791909117905560808201516003820190610aa59082610edd565b5060a082015181600401555050336001600160a01b03167f4387a43b973e49ad9e029dcf0b0d3a666017065259bf6dfc80d332d8e9e46dea60038581548110610af057610af0611016565b90600052602060002090600502016000014285600254604051610b16949392919061108d565b60405180910390a260028054906000610b2e83610fef565b9190505550505050565b634e487b7160e01b600052604160045260246000fd5b600082601f830112610b5f57600080fd5b813567ffffffffffffffff80821115610b7a57610b7a610b38565b604051601f8301601f19908116603f01168101908282118183101715610ba257610ba2610b38565b81604052838152866020858801011115610bbb57600080fd5b836020870160208301376000602085830101528094505050505092915050565b60008060008060808587031215610bf157600080fd5b843567ffffffffffffffff80821115610c0957600080fd5b610c1588838901610b4e565b9550602087013594506040870135915080821115610c3257600080fd5b610c3e88838901610b4e565b93506060870135915080821115610c5457600080fd5b50610c6187828801610b4e565b91505092959194509250565b600060208284031215610c7f57600080fd5b5035919050565b60005b83811015610ca1578181015183820152602001610c89565b50506000910152565b60008151808452610cc2816020860160208601610c86565b601f01601f19169290920160200192915050565b602081526000825160a06020840152610cf260c0840182610caa565b9050602084015160408401526040840151601f1980858403016060860152610d1a8383610caa565b9250606086015191508085840301608086015250610d388282610caa565b915050608084015160a08401528091505092915050565b60006020808301818452808551808352604092508286019150828160051b87010184880160005b83811015610dff57603f19898403018552815160c08151818652610d9c82870182610caa565b838b0151878c01528984015115158a8801526060808501516001600160a01b031690880152608080850151888303828a01529193509150610ddd8382610caa565b60a0948501519790940196909652505094870194925090860190600101610d76565b509098975050505050505050565b60008060408385031215610e2057600080fd5b82359150602083013567ffffffffffffffff811115610e3e57600080fd5b610e4a85828601610b4e565b9150509250929050565b600181811c90821680610e6857607f821691505b602082108103610e8857634e487b7160e01b600052602260045260246000fd5b50919050565b601f821115610ed857600081815260208120601f850160051c81016020861015610eb55750805b601f850160051c820191505b81811015610ed457828155600101610ec1565b5050505b505050565b815167ffffffffffffffff811115610ef757610ef7610b38565b610f0b81610f058454610e54565b84610e8e565b602080601f831160018114610f405760008415610f285750858301515b600019600386901b1c1916600185901b178555610ed4565b600085815260208120601f198616915b82811015610f6f57888601518255948401946001909101908401610f50565b5085821015610f8d5787850151600019600388901b60f8161c191681555b5050505050600190811b01905550565b60a081526000610fb060a0830188610caa565b8660208401528281036040840152610fc88187610caa565b90508281036060840152610fdc8186610caa565b9150508260808301529695505050505050565b60006001820161100f57634e487b7160e01b600052601160045260246000fd5b5060010190565b634e487b7160e01b600052603260045260246000fd5b60208082526025908201527f4f6e6c7920746865206f776e65722063616e2063616c6c20746869732066756e60408201526431ba34b7b760d91b606082015260800190565b60008251611083818460208701610c86565b9190910192915050565b60808152600080865461109f81610e54565b80608086015260a06001808416600081146110c157600181146110db5761110c565b60ff1985168884015283151560051b88018301955061110c565b8b60005260208060002060005b868110156111035781548b82018701529084019082016110e8565b8a018501975050505b505050505085602084015282810360408401526111298186610caa565b9150508260608301529594505050505056fea2646970667358221220d3ae1f51ee54109cc1d88ffaafaace2cf9c22072fe23da23577e51c1d8cfb2c364736f6c63430008110033",
  "devdoc": {
    "author": "BuidlGuidl",
    "kind": "dev",
    "methods": {},
    "version": 1
  },
  "userdoc": {
    "kind": "user",
    "methods": {},
    "notice": "A smart contract that allows changing a state variable of the contract and tracking the changes It also allows the owner to withdraw the Ether in the contract",
    "version": 1
  },
  "storageLayout": {
    "storage": [
      {
        "astId": 4,
        "contract": "contracts/YourContract.sol:web3Food",
        "label": "owner",
        "offset": 0,
        "slot": "0",
        "type": "t_address"
      },
      {
        "astId": 7,
        "contract": "contracts/YourContract.sol:web3Food",
        "label": "maxFood",
        "offset": 0,
        "slot": "1",
        "type": "t_uint256"
      },
      {
        "astId": 10,
        "contract": "contracts/YourContract.sol:web3Food",
        "label": "orderId",
        "offset": 0,
        "slot": "2",
        "type": "t_uint256"
      },
      {
        "astId": 84,
        "contract": "contracts/YourContract.sol:web3Food",
        "label": "foods",
        "offset": 0,
        "slot": "3",
        "type": "t_array(t_struct(food)55_storage)dyn_storage"
      },
      {
        "astId": 88,
        "contract": "contracts/YourContract.sol:web3Food",
        "label": "orders",
        "offset": 0,
        "slot": "4",
        "type": "t_array(t_struct(order)68_storage)dyn_storage"
      }
    ],
    "types": {
      "t_address": {
        "encoding": "inplace",
        "label": "address",
        "numberOfBytes": "20"
      },
      "t_array(t_struct(food)55_storage)dyn_storage": {
        "base": "t_struct(food)55_storage",
        "encoding": "dynamic_array",
        "label": "struct web3Food.food[]",
        "numberOfBytes": "32"
      },
      "t_array(t_struct(order)68_storage)dyn_storage": {
        "base": "t_struct(order)68_storage",
        "encoding": "dynamic_array",
        "label": "struct web3Food.order[]",
        "numberOfBytes": "32"
      },
      "t_bool": {
        "encoding": "inplace",
        "label": "bool",
        "numberOfBytes": "1"
      },
      "t_string_storage": {
        "encoding": "bytes",
        "label": "string",
        "numberOfBytes": "32"
      },
      "t_struct(food)55_storage": {
        "encoding": "inplace",
        "label": "struct web3Food.food",
        "members": [
          {
            "astId": 46,
            "contract": "contracts/YourContract.sol:web3Food",
            "label": "name",
            "offset": 0,
            "slot": "0",
            "type": "t_string_storage"
          },
          {
            "astId": 48,
            "contract": "contracts/YourContract.sol:web3Food",
            "label": "price",
            "offset": 0,
            "slot": "1",
            "type": "t_uint256"
          },
          {
            "astId": 50,
            "contract": "contracts/YourContract.sol:web3Food",
            "label": "description",
            "offset": 0,
            "slot": "2",
            "type": "t_string_storage"
          },
          {
            "astId": 52,
            "contract": "contracts/YourContract.sol:web3Food",
            "label": "image",
            "offset": 0,
            "slot": "3",
            "type": "t_string_storage"
          },
          {
            "astId": 54,
            "contract": "contracts/YourContract.sol:web3Food",
            "label": "foodId",
            "offset": 0,
            "slot": "4",
            "type": "t_uint256"
          }
        ],
        "numberOfBytes": "160"
      },
      "t_struct(order)68_storage": {
        "encoding": "inplace",
        "label": "struct web3Food.order",
        "members": [
          {
            "astId": 57,
            "contract": "contracts/YourContract.sol:web3Food",
            "label": "name",
            "offset": 0,
            "slot": "0",
            "type": "t_string_storage"
          },
          {
            "astId": 59,
            "contract": "contracts/YourContract.sol:web3Food",
            "label": "price",
            "offset": 0,
            "slot": "1",
            "type": "t_uint256"
          },
          {
            "astId": 61,
            "contract": "contracts/YourContract.sol:web3Food",
            "label": "isPrepared",
            "offset": 0,
            "slot": "2",
            "type": "t_bool"
          },
          {
            "astId": 63,
            "contract": "contracts/YourContract.sol:web3Food",
            "label": "buyer",
            "offset": 1,
            "slot": "2",
            "type": "t_address"
          },
          {
            "astId": 65,
            "contract": "contracts/YourContract.sol:web3Food",
            "label": "tableId",
            "offset": 0,
            "slot": "3",
            "type": "t_string_storage"
          },
          {
            "astId": 67,
            "contract": "contracts/YourContract.sol:web3Food",
            "label": "orderId",
            "offset": 0,
            "slot": "4",
            "type": "t_uint256"
          }
        ],
        "numberOfBytes": "160"
      },
      "t_uint256": {
        "encoding": "inplace",
        "label": "uint256",
        "numberOfBytes": "32"
      }
    }
  }
}